:020000040800F2
:1000000098060020290200081105000809050008CB
:100010000D050008E3020008310900080000000097
:10002000000000000000000000000000B906000809
:1000300031040008000000008D050008A907000831
:10004000430200084302000843020008430200087C
:10005000430200084302000843020008430200086C
:10006000430200084302000843020008430200085C
:1000700043020008E90200084302000843020008A6
:10008000430200084302000843020008430200083C
:10009000430200084302000843020008430200082C
:1000A000430200084302000843020008430200081C
:1000B000430200084302000843020008430200080C
:1000C00043020008430200084302000843020008FC
:1000D00043020008430200084302000843020008EC
:1000E00043020008430200084302000843020008DC
:1000F00043020008430200084302000843020008CC
:1001000043020008430200084302000843020008BB
:1001100043020008430200084302000843020008AB
:10012000430200084302000843020008430200089B
:10013000430200084302000843020008430200088B
:10014000430200084302000843020008430200087B
:10015000430200084302000843020008430200086B
:10016000430200084302000843020008430200085B
:10017000430200084302000843020008430200084B
:10018000430200084302000800F002F800F03CF8C7
:100190000AA090E8000C82448344AAF10107DA45E2
:1001A00001D100F031F8AFF2090EBAE80F0013F0F8
:1001B000010F18BFFB1A43F001031847E8090000BC
:1001C000080A0000103A24BF78C878C1FAD852074C
:1001D00024BF30C830C144BF04680C6070470000C1
:1001E0000023002400250026103A28BF78C1FBD840
:1001F000520728BF30C148BF0B6070471FB500F0E1
:10020000C5FC1FBD10B510BD00F031F81146FFF759
:10021000F5FF00F077FC00F04FF803B4FFF7F2FFB2
:1002200003BC00F057F80000094880470948004720
:10023000FEE7FEE7FEE7FEE7FEE7FEE7FEE7FEE796
:10024000FEE7FEE704480549054A064B70470000F3
:10025000B1070008890100089800002098060020D6
:10026000980200209802002070477047704775463A
:1002700000F02CF8AE4605006946534620F0070012
:10028000854618B020B5FFF7DDFFBDE820404FF0F0
:1002900000064FF000074FF000084FF0000B21F070
:1002A0000701AC46ACE8C009ACE8C009ACE8C0093D
:1002B000ACE8C0098D46704710B50446AFF3008026
:1002C0002046BDE81040FFF7A8BF00000048704777
:1002D0003800002001491820ABBEFEE726000200CE
:1002E000704700BFFEE7000010B50949094800F05B
:1002F00031F8002405E00848005D08490855601CF5
:1003000084B2042CF7DB0121024800F03DF810BD57
:1003100000802010406002402C00002014000020CB
:100320000246094B9A4201D2084801E006481038BB
:1003300001F000531BB1064B0B40C36002E0044BBD
:100340000B40836070470000106402400060024070
:100350007D0F7D0F0246094B9A4201D2084801E009
:100360000648103801F000531BB1064B0B40C36028
:1003700002E0044B0B4083607047000010640240B1
:10038000006002407D0F7D0F21B1026842F0010242
:10039000026003E0026822F001020260704710B5BB
:1003A00001F080034BB122B1436943F08003436104
:1003B00003E0436923F08003436180290BD02AB115
:1003C000036801F01E042343036004E0036801F0A6
:1003D0001E04A343036010BD10B500220268134B36
:1003E0001A40CC680B6823434C6923438C69234330
:1003F000CC6923430C6A23434C6A23438C6A23430E
:100400004C6B23438C6B23431A430260426922F0F6
:100410000702D1E90B3423431A4342610B6943605D
:100420004B6883608B68C36010BD00003F801CF088
:100430007047F0B50A4600210023002400BF3DE0CC
:10044000012505FA01F3156805EA03049C4234D13D
:1004500005684F000326BE40B543056015794E0080
:10046000B5400668354305601579012D02D0157930
:10047000022D16D185684F000326BE40B543856026
:1004800055794E00B540866835438560456801263C
:100490008E40B5434560456896798E40B6B2354387
:1004A0004560C5684F000326BE40B543C560D57999
:1004B0004E00B540C6683543C560491C1029BFD3FE
:1004C000F0BDF0B5002300244D07ED0E02FA05F350
:1004D000CE1000F1200555F826504E07F70E0F26D6
:1004E000BE40B543CF1000F1200646F82750CE108D
:1004F00000F1200555F8265045EA0304CE1000F11E
:10050000200545F82640F0BD00BFFEE700BFFEE72E
:100510007047000070B5002100230F22C4781CB37F
:10052000174C246804F4E064C4F5E064C4F30721C4
:10053000C1F10404E3B20A4144789C40E1B28478FA
:10054000144021430C07210E0E4C057861550478A8
:1005500004F01F050124AC4005786D11AD0005F1D4
:10056000E025C5F8004109E0047804F01F050124E6
:10057000AC40054D0678761145F8264070BD000068
:100580000CED00E000E400E080E100E070470000D6
:1005900029B1064A12680243044B1A6004E0034A78
:1005A00012688243014B1A607047000030380240E5
:1005B00029B1064A12680243044B1A6004E0034A58
:1005C00012688243014B1A607047000040380240B5
:1005D000F0B5002100220024022500260223324F1C
:1005E0003F6807F00C0121B1042905D0082937D153
:1005F00005E02E4F076036E02D4F076033E02A4FAD
:100600003F1F3F68C7F38056274F3F1F3F6807F0E3
:100610003F036EB1264FB7FBF3F7DFF88CC0ACF1A8
:10062000040CDCF800C0CCF3881C07FB0CF40CE0D5
:100630001E4FB7FBF3F7DFF870C0ACF1040CDCF829
:1006400000C0CCF3881C07FB0CF4174F3F1F3F681A
:10065000C7F301477F1C7D00B4FBF5F7076002E09C
:10066000124F076000BF00BF0F4F3F6807F0F00157
:100670000909104F7A5C0768D74047600A4F3F6806
:1006800007F4E051890A0B4F7A5C4768D7408760CE
:10069000054F3F6807F46041490B064F7A5C476895
:1006A000D740C760F0BD0000083802400024F400C5
:1006B00000127A0018000020704700000CB50020DE
:1006C000019000903448006840F48030324908605E
:1006D00000BF3148006800F4003000900198401CD1
:1006E0000190009818B90198B0F5A04FF1D12A48AF
:1006F000006800F4003010B10120009001E00020FB
:1007000000900098012846D123484030006840F00E
:1007100080502149403108602048006840F4404042
:100720001E4908601C48083000681B4908310860F1
:100730000846006840F4004008600846006840F43D
:10074000A05008601648091F0860081F006840F0A4
:100750008070091F086000BF0F48006800F000703B
:100760000028F9D040F205700E4908600A480830A8
:10077000006820F003000849083108600846006856
:1007800040F00200086000BF03480830006800F035
:100790000C000828F8D10CBD003802400070004061
:1007A00008544007003C024010B500F035F810BD79
:1007B00010B51548006840F47000134908601348EC
:1007C000006840F001001149086000200F4908311D
:1007D00008600E4800680E4908400C4908600D4842
:1007E000091D0860081F006820F48020091F0860A8
:1007F000002006490C310860FFF760FF4FF00060F1
:1008000001498039086010BD88ED00E000380240E1
:10081000FFFFF6FE103000240448006820B10348B2
:100820000068401E01490860704700002800002051
:1008300021B1828942F40052828104E082894DF61E
:10084000FF731A40828170471AB1838A0B438382F7
:1008500002E0838A8B438382704700002DE9FF47C3
:1008600005460E460024A14600BFA046B08900B14F
:1008700000BF2C8A24F44054F08804432C82AC89B5
:1008800041F20C608443B088318908437189084380
:100890000443AC81AC8A24F44074B0890443AC8234
:1008A0006846FFF795FE2048854202D01F488542E2
:1008B00002D1DDF80C9001E0DDF80890A88900F481
:1008C000004040B109EBC90000EB09103168490054
:1008D000B0FBF1F707E009EBC90000EB0910316844
:1008E0008900B0FBF1F76420B7FBF0F004012009A8
:1008F000642101FB1078A88900F4004040B1322047
:1009000000EBC800B0FBF1F000F00700044308E082
:10091000322000EB08106421B0FBF1F000F00F0072
:1009200004432C81BDE8FF87001001400014014002
:1009300000BFFEE710B5044601211020FFF738FE86
:1009400042F2CF000C490885601EC8620020486250
:1009500001208882002008820120088000BF06480C
:10096000008A0028FBD000200349088000211020C5
:10097000FFF71EFE10BD00000010004000B597B04C
:1009800001210846FFF704FE0121C804FFF710FE0D
:1009900001214805FFF7FCFD082200215448FFF71C
:1009A00090FD082201215248FFF78BFD0120159090
:1009B00002208DF8580000208DF85A0001208DF893
:1009C0005B0002208DF8590015A94948FFF731FD59
:1009D000022015908DF8580015A94548FFF729FD0C
:1009E0004FF4E13011900020ADF84800ADF84A0016
:1009F000ADF84C00ADF850000C20ADF84E0011A938
:100A00003C48FFF72BFF01213A48FFF711FF012275
:100A100080213848FFF718FF4FF0006002903548FA
:100A2000001D039034480490402005900B20069050
:100A3000002007904FF480600890002009900A90F1
:100A40000B904FF400300C9000200D9001200E9080
:100A500000200F90109002A92848FFF7BDFC01214B
:100A60002648FFF791FC012240212248FFF7ECFEC7
:100A70004FF0006002901F48001D03902048049032
:100A80000020059004200690002007904FF480601D
:100A90000890002009900A900B904FF400300C90C1
:100AA00000200D9001200E9000200F90109002A9C0
:100AB00012483038FFF790FC012110483038FFF71A
:100AC00063FC0D208DF8040000208DF805008DF8E2
:100AD000060001208DF8070001A8FFF71BFD012289
:100AE000102106483038FFF75AFC17B000BD00004F
:100AF00000000240004C0040960B0008706002406D
:100B00002C0000201C4800686422B0FBF2F1481E53
:100B1000B0F1807F00D31BE0481E4FF0E02250610F
:100B200050170F22002804DB13071C0E134B1C5414
:100B300006E013071D0E124B00F00F04241F1D5575
:100B400000BF00204FF0E02290610720106100BF3D
:100B5000FFF714FF0FE00B490B48FFF7E1FB0B20F9
:100B600009497039486701210748FFF70DFC42F237
:100B70001070FFF7DFFEEEE70000002000E400E069
:100B800018ED00E020000020706002404FF040703F
:100B9000E1EE100A704768656C6C6F20776F726CBD
:100BA00064000000C40B0008000000202C000000BE
:100BB000C4010008F00B00082C0000206C060000A7
:100BC000E0010008007A030A0000000000000000B5
:100BD00001020304060708090000000000000000ED
:100BE00001020304010203040607080900000000D3
:040000050800018965
:00000001FF
